{
  "contractName": "theremotedoctor",
  "abi": [
    {
      "inputs": [
        {
          "internalType": "uint256",
          "name": "_an",
          "type": "uint256"
        },
        {
          "internalType": "address",
          "name": "_patient",
          "type": "address"
        },
        {
          "internalType": "bytes32",
          "name": "_hash",
          "type": "bytes32"
        }
      ],
      "name": "addReport",
      "outputs": [],
      "stateMutability": "nonpayable",
      "type": "function"
    },
    {
      "inputs": [
        {
          "internalType": "uint256",
          "name": "_an",
          "type": "uint256"
        }
      ],
      "name": "getHash",
      "outputs": [
        {
          "internalType": "bytes32",
          "name": "",
          "type": "bytes32"
        }
      ],
      "stateMutability": "view",
      "type": "function",
      "constant": true
    },
    {
      "inputs": [
        {
          "internalType": "uint256",
          "name": "_an",
          "type": "uint256"
        }
      ],
      "name": "getPatientHash",
      "outputs": [
        {
          "internalType": "bytes32",
          "name": "",
          "type": "bytes32"
        }
      ],
      "stateMutability": "view",
      "type": "function",
      "constant": true
    },
    {
      "inputs": [
        {
          "internalType": "uint256",
          "name": "_an",
          "type": "uint256"
        }
      ],
      "name": "revokePermission",
      "outputs": [],
      "stateMutability": "nonpayable",
      "type": "function"
    }
  ],
  "bytecode": "0x608060405234801561001057600080fd5b50610404806100206000396000f3fe608060405234801561001057600080fd5b506004361061004c5760003560e01c806344715b8a146100515780636b2fafa914610093578063b8eaf9f1146100d5578063f55e822d1461012d575b600080fd5b61007d6004803603602081101561006757600080fd5b810190808035906020019092919050505061015b565b6040518082815260200191505060405180910390f35b6100bf600480360360208110156100a957600080fd5b810190808035906020019092919050505061017a565b6040518082815260200191505060405180910390f35b61012b600480360360608110156100eb57600080fd5b8101908080359060200190929190803573ffffffffffffffffffffffffffffffffffffffff169060200190929190803590602001909291905050506101d1565b005b6101596004803603602081101561014357600080fd5b81019080803590602001909291905050506102f3565b005b6000806000838152602001908152602001600020600201549050919050565b60006101868233610324565b156101a8576000808381526020019081526020016000206002015490506101cc565b7f4e554c4c0000000000000000000000000000000000000000000000000000000090505b919050565b60405180608001604052808373ffffffffffffffffffffffffffffffffffffffff1681526020013373ffffffffffffffffffffffffffffffffffffffff1681526020018281526020016001151581525060008085815260200190815260200160002060008201518160000160006101000a81548173ffffffffffffffffffffffffffffffffffffffff021916908373ffffffffffffffffffffffffffffffffffffffff16021790555060208201518160010160006101000a81548173ffffffffffffffffffffffffffffffffffffffff021916908373ffffffffffffffffffffffffffffffffffffffff1602179055506040820151816002015560608201518160030160006101000a81548160ff021916908315150217905550905050505050565b600080600083815260200190815260200160002060030160006101000a81548160ff02191690831515021790555050565b60008173ffffffffffffffffffffffffffffffffffffffff1660008085815260200190815260200160002060010160009054906101000a900473ffffffffffffffffffffffffffffffffffffffff1673ffffffffffffffffffffffffffffffffffffffff161480156103b5575060008084815260200190815260200160002060030160009054906101000a900460ff165b156103c357600190506103c8565b600090505b9291505056fea2646970667358221220329b9414390a5a74e19c078cecd4291757537e019eb0d0f77a5d984d94b5966a64736f6c63430006000033",
  "source": "pragma solidity ^0.6.0;\ncontract theremotedoctor {\n\n    struct Voter {\n        address patient;\n        address doctor;\n        bytes32 report_hash;\n        bool permission;\n    }\n    \n    mapping(uint => Voter) appointment_number;\n\n    function addReport(uint _an, address _patient, bytes32 _hash) public {\n        appointment_number[_an]=Voter(_patient, msg.sender, _hash, true);\n    }\n    \n    function getHash(uint _an) public view returns(bytes32){\n       if(checkPermission(_an, msg.sender))\n            return appointment_number[_an].report_hash;\n        return \"NULL\";\n    }\n    \n    function checkPermission(uint _an, address _doc) private view returns(bool){\n        if(appointment_number[_an].doctor == _doc && appointment_number[_an].permission)\n            return true;\n        return false;\n    }\n    \n    function getPatientHash(uint _an) public view returns(bytes32) {\n        return appointment_number[_an].report_hash;\n    }\n    \n    function revokePermission(uint _an) public {\n        appointment_number[_an].permission = false;\n    }\n}\n    ",
  "sourcePath": "/home/abkedia/Documents/theremotedoctor/contracts/theremotedoctor.sol",
  "compiler": {
    "name": "solc",
    "version": "0.6.0+commit.26b70077.Emscripten.clang"
  },
  "schemaVersion": "3.4.1",
  "updatedAt": "2021-06-09T14:44:47.127Z",
  "networkType": "ethereum",
  "devdoc": {
    "methods": {}
  },
  "userdoc": {
    "methods": {}
  }
}