{
  "contractName": "theremotedoctor",
  "abi": [
    {
      "inputs": [
        {
          "internalType": "uint256",
          "name": "_an",
          "type": "uint256"
        },
        {
          "internalType": "address",
          "name": "_patient",
          "type": "address"
        },
        {
          "internalType": "bytes32",
          "name": "_hash",
          "type": "bytes32"
        }
      ],
      "name": "addReport",
      "outputs": [],
      "stateMutability": "nonpayable",
      "type": "function"
    },
    {
      "inputs": [
        {
          "internalType": "uint256",
          "name": "_an",
          "type": "uint256"
        }
      ],
      "name": "getHash",
      "outputs": [
        {
          "internalType": "bytes32",
          "name": "",
          "type": "bytes32"
        }
      ],
      "stateMutability": "view",
      "type": "function",
      "constant": true
    }
  ],
  "bytecode": "0x608060405234801561001057600080fd5b5061032e806100206000396000f3fe608060405234801561001057600080fd5b50600436106100365760003560e01c80636b2fafa91461003b578063b8eaf9f11461007d575b600080fd5b6100676004803603602081101561005157600080fd5b81019080803590602001909291905050506100d5565b6040518082815260200191505060405180910390f35b6100d36004803603606081101561009357600080fd5b8101908080359060200190929190803573ffffffffffffffffffffffffffffffffffffffff1690602001909291908035906020019092919050505061012c565b005b60006100e1823361024e565b1561010357600080838152602001908152602001600020600201549050610127565b7f4e554c4c0000000000000000000000000000000000000000000000000000000090505b919050565b60405180608001604052808373ffffffffffffffffffffffffffffffffffffffff1681526020013373ffffffffffffffffffffffffffffffffffffffff1681526020018281526020016001151581525060008085815260200190815260200160002060008201518160000160006101000a81548173ffffffffffffffffffffffffffffffffffffffff021916908373ffffffffffffffffffffffffffffffffffffffff16021790555060208201518160010160006101000a81548173ffffffffffffffffffffffffffffffffffffffff021916908373ffffffffffffffffffffffffffffffffffffffff1602179055506040820151816002015560608201518160030160006101000a81548160ff021916908315150217905550905050505050565b60008173ffffffffffffffffffffffffffffffffffffffff1660008085815260200190815260200160002060010160009054906101000a900473ffffffffffffffffffffffffffffffffffffffff1673ffffffffffffffffffffffffffffffffffffffff161480156102df575060008084815260200190815260200160002060030160009054906101000a900460ff165b156102ed57600190506102f2565b600090505b9291505056fea2646970667358221220ea3cf30c8cf22fec134659da1d8e7f9618950774bec890964024e5ae99c1c6da64736f6c63430006000033",
  "source": "pragma solidity ^0.6.0;\ncontract theremotedoctor {\n\n    struct Voter {\n        address patient;\n        address doctor;\n        bytes32 report_hash;\n        bool permission;\n    }\n    \n    mapping(uint => Voter) appointment_number;\n\n    function addReport(uint _an, address _patient, bytes32 _hash) public {\n        appointment_number[_an]=Voter(_patient, msg.sender, _hash, true);\n    }\n    \n    function getHash(uint _an) public view returns(bytes32){\n       if(checkPermission(_an, msg.sender))\n            return appointment_number[_an].report_hash;\n        return \"NULL\";\n    }\n    \n    function checkPermission(uint _an, address _doc) private view returns(bool){\n        if(appointment_number[_an].doctor == _doc && appointment_number[_an].permission)\n            return true;\n        return false;\n    }\n}\n    ",
  "sourcePath": "/home/abkedia/Documents/theremotedoctor/contracts/theremotedoctor.sol",
  "compiler": {
    "name": "solc",
    "version": "0.6.0+commit.26b70077.Emscripten.clang"
  },
  "schemaVersion": "3.4.1",
  "updatedAt": "2021-06-06T13:01:10.116Z",
  "networkType": "ethereum",
  "devdoc": {
    "methods": {}
  },
  "userdoc": {
    "methods": {}
  }
}